:100000000C9465000C948D000C948D000C948D0064
:100010000C948D000C948D000C948D000C948D002C
:100020000C948D000C948D000C948D000C94780A27
:100030000C948D000C948D000C948D000C948D000C
:100040000C94940F0C948D000C94A10D0C94D30D72
:100050000C948D000C948D000C948D000C948D00EC
:100060000C9458090C948D000A0B0C0D0E0F000116
:100070000203040500000008000201000003040759
:100080000000000000000000010204081020408071
:1000900001020408102001020408102004040404D2
:1000A0000404040402020202020203030303030322
:1000B00000000000250028002B00000000002400A4
:1000C00027002A008F004908030E11241FBECFEF1E
:1000D000D8E0DEBFCDBF11E0A0E0B1E0ECE8F3E294
:1000E00002C005900D92A035B107D9F723E0A0E535
:1000F000B1E001C01D92A133B207E1F710E0C5E6FF
:10010000D0E004C02197FE010E94A611C236D1079B
:10011000C9F70E94850F0C94C4110C9400000F9332
:100120001F9385E791E00E94330B82E791E00E94E4
:10013000330B8FE691E00E94330B00E816E928E9C3
:1001400030E049E050E068E070E080E591E00E9436
:100150006C041F910F91089581EA91E00E94B3070A
:1001600068E670E081EA91E00E94CF076BE681EAE1
:1001700091E00E94570760E081EA91E00E945707F2
:1001800061E081EA91E00E94D10762E070E085E7DA
:1001900091E00E94CD0B63E070E08FE691E00E9459
:1001A000CD0B64E070E082E791E00E94CD0B85E02A
:1001B00090E09093910180939001909393018093AC
:1001C000920182EE9FEF90938F0180938E01909326
:1001D0008D0180938C0110928901109288011092F8
:1001E0008B0110928A01109287011092860126E0FD
:1001F00040E855E260E070E08BE892E00E943F0D3D
:1002000080E591E00E94AB0643E251E060E080E5CA
:1002100091E00E94310541E060E080E591E00E94BC
:10022000D10580E591E00E94960581E990E09093E8
:1002300081018093800187E890E090937D01809315
:100240007C018DE790E090937F0180937E01109276
:1002500095011092940108951F93CF93DF9300D0DE
:1002600000D000D0CDB7DEB780E591E00E94030555
:10027000882301F11A8219821C821B821E821D8230
:1002800046E0BE016F5F7F4F80E591E00E94070569
:1002900089819A8190938B0180938A018B819C81C3
:1002A00090938901809388018D819E81909387012D
:1002B00080938601809194019091950185309105FC
:1002C0000CF07DC10196909395018093940168E6AE
:1002D00070E081EA91E00E94CF076BE381EA91E050
:1002E0000E94570760E081EA91E00E94D10721E077
:1002F00030E046E050E068E670E081EA91E00E947C
:10030000470881EA91E00E94FE06182F81EA91E0F9
:100310000E94FE0620E0822B912B90939B018093FC
:100320009A0181EA91E00E94FE06182F81EA91E08D
:100330000E94FE0620E0822B912B909399018093DE
:10034000980181EA91E00E94FE06182F81EA91E06F
:100350000E94FE0620E0822B912B909397018093C0
:10036000960180919A0190919B0128EC30E0B901AF
:100370000E943211FB013797F0939B01E0939A01A1
:100380008091980190919901B9010E9432119B01CD
:10039000245031093093990120939801809188016C
:1003A00090918901281B390B30938301209382019E
:1003B00080918A0190918B01BF01681B790B70932A
:1003C00085016093840180918E0190918F0140910D
:1003D0008C0150918D01243FEFEF3E070CF0F7C0E8
:1003E00020917E0130917F01FC01E20FF31FF09319
:1003F0007B01E0937A01240F351F3093790120931C
:100400007801A0917A01B0917B01E0917801F0919F
:100410007901643F2FEF72070CF0E9C02091800151
:1004200030918101820F931F8A0F9B1F90937B0154
:1004300080937A0120917E0130917F01240F351F36
:100440002E0F3F1F309379012093780160917A013C
:1004500070917B0177FF02C06F5F7F4F7595679545
:1004600070937B0160937A0180917801909179017A
:1004700097FD0196959587959093790180937801E2
:1004800085E791E00E940A0C6091780170917901F2
:1004900082E791E00E940A0C64E670E080E090E060
:1004A0000E9403108091940190919501059709F0A5
:1004B0007CC060917A0170917B014AE050E08BE84A
:1004C00092E00E94310F60917801709179014AE0C9
:1004D00050E08BE892E00E94310F60E071E08BE821
:1004E00092E00E947F0E6CE071E08BE892E00E9447
:1004F0006C0E60918A0170918B014AE050E08BE8AC
:1005000092E00E94310F60E171E08BE892E00E947E
:100510006C0E60918801709189014AE050E08BE88F
:1005200092E00E94310F64E171E08BE892E00E945A
:100530006C0E60918601709187014AE050E08BE873
:1005400092E00E94310F61E271E08BE892E00E943C
:100550006C0E68E171E08BE892E00E947F0E6CE027
:1005600071E08BE892E00E946C0E60919A017091AC
:100570009B014AE050E08BE892E00E94310F60E17D
:1005800071E08BE892E00E946C0E6091980170918E
:1005900099014AE050E08BE892E00E94310F60E25E
:1005A00071E08BE892E00E946C0E26960FB6F894EC
:1005B000DEBF0FBECDBFDF91CF911F91089505978C
:1005C00009F085CE109295011092940180CE2D30C5
:1005D000310544F02091800130918101F901E80F4B
:1005E000F91F05CF20917C0130917D01F7CF6D304F
:1005F00071058CF020917E0130917F01820F931F55
:100600008A0F9B1F90937B0180937A012091800138
:100610003091810113CF20917C0130917D01820FB7
:10062000931F8A0F9B1F90937B0180937A0106CFC3
:100630008EBD00000DB407FEFDCF8EB50895CF939B
:10064000DF93EC018C810E94E7108B8D9C8DDF91F4
:10065000CF910C943C10FC012281338184819581DF
:100660002817390719F0822F0C94E71008950F937B
:100670001F93FC01068117812085318540E052E1FE
:100680006AE770E090E0041715072607370740F483
:1006900076956795579547959F5F9630A1F797E0B8
:1006A000392F306A36959095917080919E018823FC
:1006B00081F08FB7F89420919E01213091F42DB3F1
:1006C00020939C014DB320919D01209524232DBBA7
:1006D0008FBF3CBD9DBD60E0CF011F910F910C9479
:1006E0001F0380939C01F5CF61E00E941F0380915E
:1006F0009E01882361F09FB7F89420919E0180911C
:100700009C01213019F48DBB9FBF08958FBF0895C0
:100710001F93CF93DF93EC01162F0E943703812F95
:1007200080620E9418038A87CE01DF91CF911F91CA
:100730000C9474031F93CF93DF93EC01162F0E9448
:100740003703812F0E9418038A878FEF0E941803B6
:10075000182FCE010E947403812FDF91CF911F913A
:100760000895DF92EF92FF920F931F93CF93DF9341
:100770008C01C62FD42EE52EF22E0E9437038C2F2B
:1007800080620E941803F8018287CD2DDE2DFA9435
:10079000FFEFFF1621F089910E941803F8CFC801DE
:1007A000DF91CF911F910F91FF90EF90DF900C940C
:1007B00074030F931F93CF93DF93222331F0DF91C4
:1007C000CF911F910F910C948803042F162FEC01E9
:1007D0000E943703812F80620E9418038A87802F2E
:1007E0000E941803CE01DF91CF911F910F910C94BD
:1007F0007403CF92DF92EF92FF920F931F93CF93E8
:10080000DF938C016B01FC018485811118C0C385C5
:10081000DC2F4C1708F4D42FCD1BC8010E943703DE
:1008200081E60E941803F80182877601D15068F0B2
:100830008FEF0E941803F70181937F01F7CFD42F28
:10084000413208F0D0E2C0E0E8CFC15020F08FEF95
:100850000E941803FACFC801DF91CF911F910F9129
:10086000FF90EF90DF90CF900C947403CF93DF93C1
:10087000EC0162EE0E9488038A85DF91CF91089592
:10088000CF93DF93EC0161EE0E9488038A85DF91AC
:10089000CF910895CF93DF93EC016FEF0E9488030F
:1008A0008A85DF91CF910895FC0180EA91E09183E0
:1008B0008083168686819781A085B185893B98487B
:1008C000A105B10540F480E896E9A8E9B0E0868387
:1008D0009783A087B18708950F931F93FC017383BB
:1008E000628355834483068317832087318780E2A0
:1008F000838781E0848785E0838B158A85E090E09B
:10090000A0E0B0E0838F948FA58FB68FCF011F91A9
:100910000F910C945404462F6D3708F04DE720E0FA
:1009200065E00C94D9030F931F93CF938C0166233A
:10093000A1F0613208F060E2F8016387C1E120E0D4
:10094000F80143856C2FC8010E94D903CF5FC731DE
:10095000B1F7CF911F910F91089561E0EDCFFC01A8
:1009600082819381019631F081E0248135812F3F8E
:100970003F4F09F480E008951F93CF93DF93EC017C
:100980000E94AF04182F8823B1F08A819B812C81AB
:100990003D818217930739F061E00E94AB1061E05E
:1009A0008C810E94AB1060E0CE010E942B0361E0BD
:1009B000CE010E941F03812FDF91CF911F910895D7
:1009C000FC01448941FD0AC04260448B20E060E0A4
:1009D0000E94D90388E893E10C943C100895CF93CA
:1009E000DF93EB010E944A0490E09595879587700C
:1009F000863028F4209709F0888381E001C080E0E8
:100A0000DF91CF91089570E060E00C94EF04CF93F4
:100A1000DF93EC010E94F90320E040E467E0CE019F
:100A2000DF91CF910C94D9030F931F93CF938C0137
:100A3000CEEFC60F69F0C37020E04C2F63E00E9438
:100A4000D903CE5FF801C38BCF911F910F91089509
:100A500020E040E063E00E94D90382E0F801838B4C
:100A6000F3CFEF92FF920F931F93CF938C01C62F7A
:100A70007A0161112CC0FC01438950E0B7010E9648
:100A80000E94BB11EC2FF0E0E859FF4F6491F80190
:100A90002389A701C8010E94B10362E0C8010E9436
:100AA0009A03EC2FF0E0E259FF4FE49141E050E06F
:100AB00001C0440FEA95EAF7482B20E062E0C80144
:100AC000CF911F910F91FF90EF900C94D903663056
:100AD00048F4E62FF0E0E859FF4F613099F2649155
:100AE00021E0D7CFCF911F910F91FF90EF90089504
:100AF0001F93CF93DF93EC01162F62E00E949A03BD
:100B0000E12FF0E0E259FF4FE49121E030E001C035
:100B1000220FEA95EAF72095422F482320E062E071
:100B2000CE01DF91CF911F910C94D903CF93DF9326
:100B3000EC010E94E0044C8941604C8B20E060E0B5
:100B4000CE010E94D90320E040E767E0CE010E9479
:100B5000D90361E0CE010E942B038E85882351F0DA
:100B6000AE01425F5F4F2B896AE0CE01DF91CF91EA
:100B70000C94B10360E0CE01DF91CF910C94780525
:100B8000CF93DF93EC010E94370380E50E941803A6
:100B90008A8783E70E941803CE01DF91CF910C94DE
:100BA00074030F931F93CF93DF938C01D62FC42F21
:100BB00066E00E949A03887FD43060F0CA5F4C2FB1
:100BC000482B20E066E0C801DF91CF911F910F9183
:100BD0000C94D903DD0FCD0FF2CFEF92FF920F935C
:100BE0001F93CF938C017B0166E00E949A03C82F6C
:100BF000C77D82E0E816F104F1F4C0628BE990E071
:100C0000A0E0B0E0F801878B908FA18FB28F20E039
:100C10004C2F66E0C8010E94D90366E0C8010E941B
:100C20009A0391E08C1390E0892FCF911F910F913F
:100C3000FF90EF90089585E590E0A0E0B0E0EA94A1
:100C4000EF2801F7C86081E490E0A0E0B0E0DACFDF
:100C5000603108F06FE020E1629FB0011124403163
:100C600008F04FE0462B20E064E00C94D9031F937A
:100C7000CF93DF93EC0165E070E080E090E00E94AC
:100C800003104FE065E0CE010E94280670E060E0AE
:100C9000CE010E94ED056DE1CE010E949A03182F4E
:100CA000CE010E94C0056DE1CE010E949A0391E041
:100CB000181390E09D8B882359F0181303C0CE01C0
:100CC0000E94C00520E040E06DE1CE010E94D90302
:100CD0001D8620E040E06CE1CE010E94D9031C8615
:100CE00020E04FE361E0CE010E94D90320E043E021
:100CF00062E0CE010E94D90360E2CE010E9493041B
:100D000065E0CE010E9414056CE4CE010E948B04C4
:100D100020E040E767E0CE010E94D903CE010E94A7
:100D20003604CE010E94400420E04CE060E0CE0199
:100D30000E94D90360E0CE010E949A038C8BCE0101
:100D40000E94E00481E09C899E3009F080E0DF9100
:100D5000CF911F910895CF93DF93EC010E94BE06BF
:100D6000CE010E94BC04882329F0CE01DF91CF91EF
:100D70000C94370680E0DF91CF910895CF93CFB7E1
:100D8000F89480919F01811127C0E6EAF0E08491F8
:100D9000E2E9F0E09491E82FF0E0EE0FFF1FE65457
:100DA000FF4FA591B491EC91E92321F461E08AE031
:100DB0000E94E71061E08AE00E94AB108CB5806170
:100DC0008CBD8CB580648CBD61E08DE00E94AB1061
:100DD00061E08BE00E94AB1080919F018F5F809358
:100DE0009F01CFBFCF91089590E080E0089580915A
:100DF000D5019091D601891B990B08959091D60148
:100E00008091D5012FEF3FEF981748F4E92FF0E0DC
:100E1000E952FE4F208130E09F5F9093D601C901D7
:100E20000895E091D6018091D501E81730F4F0E003
:100E3000E952FE4F808190E008958FEF9FEF089573
:100E40000895CF93DF93EC01E091AD01F091AE01F5
:100E50003097F1F09091D6018091D5019817C0F0AC
:100E600090E0292F30E02617370754F4DE01A20F57
:100E7000B31F4C9129523E4FD9014C939F5FF1CF44
:100E80001092D6016093D501CB01DF91CF910994E7
:100E9000DF91CF910895E091AF01F091B0013097CB
:100EA00029F01092B3011092B20109940895CF93E2
:100EB000DF931F92CDB7DEB769832091B101222362
:100EC000F9F02091B201203258F021E030E0FC012D
:100ED0003383228390E080E00F90DF91CF910895DB
:100EE0008091B301E82FF0E0EC54FE4F998190839C
:100EF0008F5F8093B3018093B20181E090E0ECCFEB
:100F000061E0CE0101960E941709F7CFCF92DF92E0
:100F1000EF92FF920F931F93CF93DF937C01CB014E
:100F20008A012091B101222389F0EB016B01C40EEB
:100F3000D51ECC15DD0569F06991D701ED91FC91C5
:100F40000190F081E02DC7010995F3CF642F0E9435
:100F50001709C801DF91CF911F910F91FF90EF907A
:100F6000DF90CF9008951092D6011092D501109283
:100F7000B3011092B2010E945A088BE497E00E94DC
:100F8000430981E297E00C943E0981E08093B1012E
:100F90006093D4011092B3011092B20108950C94A1
:100FA000C5070F93062F21E04091B20164EB71E079
:100FB0008091D4010E94C0081092B3011092B20136
:100FC0001092B1010F9108954F925F926F927F92AC
:100FD000AF92BF92CF92EF92FF920F931F93CF9356
:100FE000DF935C01F62ED42F28013901EE2019F190
:100FF0000E94C507CE2DC43008F0C3E0C150B8F040
:1010000028E0C29FC0011124A301920104C056959B
:101010004795379527958A95D2F7B901D501ED9176
:10102000FC910190F081E02DC5010995E7CF60E0CA
:10103000C5010E94D1074D2FD13208F040E22C2D7E
:1010400067ED71E08F2D0E9478081092D601809391
:10105000D501DF91CF911F910F91FF90EF90CF902D
:10106000BF90AF907F906F905F904F900895CF9218
:10107000EF920F931F93C22EE12C00E010E0980135
:101080000E94E4071F910F91EF90CF9008950C9468
:101090003708E1EAF1E01382128288EE93E0A0E0E3
:1010A000B0E084839583A683B7838DE291E091833A
:1010B000808308951092640281E08093620210920E
:1010C000610261E082E10E94E71061E083E10E9439
:1010D000E710E9EBF0E080818E7F808380818D7F57
:1010E000808388E48093B80085E48093BC000895F1
:1010F000413208F043C0909164029111FCCF91E01D
:1011000090936402209362022FEF2093F7011092D4
:101110003C02240F20933B02909363029091630260
:10112000880F892B8093630280916102813009F5D9
:1011300010926102809163028093BB008091BC0099
:1011400083FDF8CF85EC8093BC00809164028130F0
:10115000E1F380913C02841710F440913C02ADE32E
:10116000B2E0962FFB018E2F891B841720F0842F6D
:10117000089585EEE8CF8D918193F5CF40E0F7CFCC
:101180000F93413208F04BC0909164029111FCCF53
:1011900092E090936402009362029FEF9093F701B4
:1011A00010923C0240933B02362FADE3B2E0FB01CC
:1011B0009E2F931B941770F110926302909163021B
:1011C000880F892B8093630280916102813029F519
:1011D00010926102809163028093BB008091BC00F9
:1011E00083FDF8CF85EC8093BC00222321F0809111
:1011F00064028230D1F38091F7018F3F91F08091AA
:10120000F701803281F08091F701803371F084E042
:101210000F91089591919D93CBCF85EEE4CF81E01E
:10122000F7CF80E0F5CF82E0F3CF83E0F1CF2091DC
:101230001902260F3327331F21323105ECF4209198
:101240006402FC0190E080E0243069F082E00895BF
:10125000A09119022191AC01455E5D4FA40FB52FFD
:10126000B11D2C930196861798F380911902680F8F
:101270006093190280E0089581E0089590935E02E2
:1012800080935D0208959093600280935F020895B9
:1012900085ED8093BC008091BC0084FDFCCF109252
:1012A0006402089585EC8093BC0010926402089556
:1012B0001F920F920FB60F9211242F933F934F93CB
:1012C0005F936F937F938F939F93AF93BF93EF93AE
:1012D000FF938091B900887F803609F44CC008F0F4
:1012E0003FC0883209F4A8C018F5803109F49CC0C9
:1012F000B8F4882309F4F9C0883009F495C0FF9147
:10130000EF91BF91AF919F918F917F916F915F917D
:101310004F913F912F910F900FBE0F901F901895F6
:10132000883109F489C0803251F78093F70115C0E4
:10133000803409F49EC048F48033B9F38833F9F659
:101340008093F7010E945209DACF803509F485C0F5
:10135000883509F496C0883491F60E944809CFCFA9
:10136000883909F48CC038F5883729F050F488366C
:1013700011F0803721F683E0809364021092F80127
:1013800057C0883809F47BC0803919F0803809F0DB
:10139000B6CF8091F801803208F071C0E091F80179
:1013A00081E08E0F8093F8018091BB00F0E0E75060
:1013B000FE4F80833DC0803B39F0E0F4803A09F471
:1013C00079C0883A09F09BCF84E080936402109240
:1013D0001A0210921902E0915F02F09160020995E1
:1013E0008091190281110FC081E08093190210923F
:1013F0001B0209C0803C09F476C0883C09F473C024
:10140000883B09F07CCFE0911A0281E08E0F809337
:101410001A02F0E0E55EFD4F80818093BB00909161
:101420001A028091190229C0809163028093BB0047
:1014300085EC8093BC0063CF90913C0280913B028D
:10144000981758F5E0913C0281E08E0F80933C02A2
:10145000F0E0E35CFD4F8081E9CFE0913C0281E068
:101460008E0F80933C028091BB00F0E0E35CFD4F67
:10147000808390913C0280913B029817C8F285E8E6
:10148000D8CFE0913C0281E08E0F80933C028091A6
:10149000BB00F0E0E35CFD4F80838091620281112C
:1014A0005CCF81E08093610284EA8093BC0010925B
:1014B000640225CF0E9452098091F801803230F4F5
:1014C000E091F801F0E0E750FE4F10826091F801E2
:1014D00070E0E0915D02F0915E0289EF91E0099584
:1014E0001092F8010CCF85ECE0CF1092F70135CFC8
:1014F0001F920F920FB60F9211242F933F934F9389
:101500005F936F937F938F939F93AF93BF93EF936B
:10151000FF938091660287FF27C01092850010928A
:101520008400809166028F5F8093660280916602DC
:10153000082E000C990B209165022817190629F036
:1015400024F0809166028C30DCF1809184009091CF
:101550008500049680349C4908F47BC08091840007
:1015600090918500049677C080916602082E000C49
:10157000990B209165022817190699F294F2E091CF
:1015800066028E2FEE0F990BFC01EE0FFF1FE80F86
:10159000F91FE959FD4F808186FFC3CFE0916602B4
:1015A0008E2FEE0F990BFC01EE0FFF1FE80FF91FB6
:1015B000E959FD4F808160E08F730E94E710B1CF41
:1015C0002091840030918500E09166028E2FEE0F0D
:1015D000990BFC01EE0FFF1FE80FF91FE959FD4FB2
:1015E00081819281820F931F90938900809388005C
:1015F000E09166028E2FEE0F990BFC01EE0FFF1F9C
:10160000E80FF91FE959FD4F808186FF11C0E09175
:1016100066028E2FEE0F990BFC01EE0FFF1FE80FF5
:10162000F91FE959FD4F808161E08F730E94E71037
:10163000FF91EF91BF91AF919F918F917F916F91AA
:101640005F914F913F912F910F900FBE0F901F9080
:10165000189580E49CE990938900809388008FEF2F
:1016600080936602E5CFFC01909165029C3098F46E
:1016700081E0890F809365029083892F90E0FC01BF
:10168000EE0FFF1FE80FF91FE959FD4F88EB9BE0B4
:101690009283818308958FEF80830895DF92EF9284
:1016A000FF920F931F93CF93DF93EC01D62E7A0115
:1016B000890188818C3008F067C061E08D2D0E941F
:1016C000AB108881282F30E0F901EE0FFF1FE20FE9
:1016D000F31FE959FD4F9D2D9F736081607C692B3D
:1016E000608320E232E02E193F0937FF02C02D5FF0
:1016F0003F4F3595279535952795298320E639E085
:10170000201B310B37FF02C02D5F3F4F35952795CA
:10171000359527952A832CE0622F0E942611829FFF
:10172000B001112430E020E0AB01420F531FFA0159
:10173000EE0FFF1FE40FF51FE959FD4F908196FD55
:1017400016C02F5F3F4F2C30310571F781110FC04C
:101750001092800082E080938100109285001092A8
:101760008400B19A80916F00826080936F00E8815D
:101770008E2F90E0FC01EE0FFF1FE80FF91FE959D3
:10178000FD4F8081806480838881DF91CF911F919C
:101790000F91FF90EF90DF90089520E639E040E24E
:1017A00052E00C944E0BDC01EC91EC3090F511966C
:1017B0008C91119728E830E0281B310987FD33957B
:1017C000220F331F220F331F6217730784F0129604
:1017D0008C9128E532E0281B310987FD3395220FD3
:1017E000331F220F331F621773070CF49B01225023
:1017F0003109220F331F4FB7F8948E2F90E0FC0170
:10180000EE0FFF1FE80FF91FE959FD4F32832183C7
:101810004FBF0895AF92BF92CF92DF92EF92FF92A7
:101820000F931F93CF93DF93EC01603282E0780730
:101830000CF03EC0653B710514F064EB70E08981EB
:1018400048E8A42EB12CA81AB10887FDB394AA0CBD
:10185000BB1CAA0CBB1C0B2C000CCC08DD0877FFB2
:1018600002C070E060E0072E000C880B990B2A8103
:1018700008E512E0021B110927FD1395000F111F47
:10188000000F111F012E000C220B330B3F932F93DF
:101890001F930F9314EBE12EF12C00E010E020E0F9
:1018A00030E0A9010E94430F0F900F900F900F900E
:1018B000CE01DF91CF911F910F91FF90EF90DF90BC
:1018C000CF90BF90AF900C94D30BFC01918D228DE3
:1018D000892F90E0805C9F4F821B91098F7399271D
:1018E0000895FC01918D828D981731F0828DE80F5B
:1018F000F11D858D90E008958FEF9FEF0895FC0115
:10190000918D828D981761F0A28DAE0FBF2FB11D02
:101910005D968C91928D9F5F9F73928F90E008955A
:101920008FEF9FEF0895FC01538D448D252F30E0FC
:10193000842F90E0821B930B541710F0CF960895DC
:101940000197089589EF9DE0892B49F080E090E0B0
:10195000892B29F00E94F90D81110C940000089543
:10196000FC01A48DA80FB92FB11DA35ABF4F2C9114
:10197000848D90E001968F739927848FA689B7890B
:101980002C93A089B1898C91837080648C93938D02
:10199000848D981306C00288F389E02D80818F7DA5
:1019A00080830895CF93DF93EC01888D8823B9F06D
:1019B000AA89BB89E889F9898C9185FD03C080815A
:1019C00086FD0DC00FB607FCF7CF8C9185FFF2CFD7
:1019D000808185FFEDCFCE010E94B00CE9CFDF9171
:1019E000CF910895EF92FF920F931F93CF93DF93C0
:1019F000EC0181E0888F9B8D8C8D98131AC0E8894B
:101A0000F989808185FF15C09FB7F894EE89FF8919
:101A10006083E889F98980818370806480839FBFB7
:101A200081E090E0DF91CF911F910F91FF90EF90B7
:101A30000895F62E0B8D10E00F5F1F4F0F731127C7
:101A4000E02E8C8D8E110CC00FB607FCFACFE88902
:101A5000F989808185FFF5CFCE010E94B00CF1CFCE
:101A6000EB8DEC0FFD2FF11DE35AFF4FF0829FB776
:101A7000F8940B8FEA89FB8980818062CFCFCF9267
:101A8000DF92EF92FF921F93CF93DF93EC016A01F5
:101A90007B01122FE889F98982E08083C11481EEED
:101AA000D806E104F104A1F060E079E08DE390E074
:101AB000A70196010E94461121503109410951099F
:101AC0005695479537952795211580E1380798F069
:101AD000E889F989108260E874E88EE190E0A70156
:101AE00096010E944611215031094109510956952C
:101AF000479537952795EC85FD853083EE85FF85E5
:101B00002083188EEC89FD891083EA89FB89808106
:101B100080618083EA89FB89808188608083EA898B
:101B2000FB89808180688083EA89FB8980818F7D41
:101B30008083DF91CF911F91FF90EF90DF90CF9046
:101B400008951F920F920FB60F9211242F938F9327
:101B50009F93EF93FF93E0919B02F0919C02808111
:101B6000E091A102F091A20282FD1BC090818091C0
:101B7000A4028F5F8F732091A502821741F0E0913C
:101B8000A402F0E0E557FD4F958F8093A402FF91EA
:101B9000EF919F918F912F910F900FBE0F901F90FB
:101BA00018958081F4CF1F920F920FB60F921124D7
:101BB0002F933F934F935F936F937F938F939F9355
:101BC000AF93BF93EF93FF938BE892E00E94B00C2A
:101BD000FF91EF91BF91AF919F918F917F916F9105
:101BE0005F914F913F912F910F900FBE0F901F90DB
:101BF00018958BE892E00E94650C21E0892B09F48E
:101C000020E0822F0895EBE8F2E01382128288EE42
:101C100093E0A0E0B0E084839583A683B7838FE34D
:101C200091E09183808385EC90E09587848784ECB4
:101C300090E09787868780EC90E0918B808B81EC99
:101C400090E0938B828B82EC90E0958B848B86EC7A
:101C500090E0978B868B118E128E138E148E0895C2
:101C6000AF92BF92CF92DF92EF92FF920F931F93AA
:101C7000CF93DF936C017B018B01040F151FEB01E8
:101C80005E01AE18BF08C017D10759F06991D6019F
:101C9000ED91FC910190F081E02DC6010995892B11
:101CA00079F7C501DF91CF911F910F91FF90EF90D0
:101CB000DF90CF90BF90AF900895FB01019000207E
:101CC000E9F73197AF01461B570BDC01ED91FC9111
:101CD0000280F381E02D09946115710511F00C94D7
:101CE0005D0E90E080E00895DC01ED91FC910190A3
:101CF000F081E02D09946DE471E00C945D0E0F937A
:101D00001F93CF93DF938C01D0E0C0E06115710584
:101D100019F00E945D0EEC01C8010E947B0E8C0F31
:101D20009D1FDF91CF911F910F9108958F929F92E8
:101D3000AF92BF92EF92FF920F931F93CF93DF93D7
:101D4000CDB7DEB7A1970FB6F894DEBF0FBECDBFFB
:101D50007C01FA01CB0119A2223008F42AE08E019D
:101D60000F5D1F4F822E912CB12CA12CBF01A5011C
:101D700094010E944611F901CA016A300CF5605DB8
:101D8000D8016E938D01232B242B252B79F790E01E
:101D900080E0109721F0BD01C7010E945D0EA19661
:101DA0000FB6F894DEBF0FBECDBFDF91CF911F916C
:101DB0000F91FF90EF90BF90AF909F908F900895FC
:101DC000695CDECFCF92DF92EF92FF920F931F9369
:101DD000CF93DF932115310581F4DC01ED91FC9166
:101DE0000190F081E02D642FDF91CF911F910F9131
:101DF000FF90EF90DF90CF9009942A30310501F5E4
:101E00002AE077FF1DC06A017B01EC016DE20E94B0
:101E1000740E8C0144275527BA014C195D096E09CF
:101E20007F092AE0CE010E94960E800F911FDF915C
:101E3000CF911F910F91FF90EF90DF90CF90089579
:101E4000DF91CF911F910F91FF90EF90DF90CF9096
:101E50000C94960E9A01AB01770F660B770B0C94DE
:101E6000E20E0F931F93CF93DF93EC010E942A0F92
:101E70008C01CE010E947B0E800F911FDF91CF91CC
:101E80001F910F9108954F925F926F927F92AF9240
:101E9000BF92CF92DF92EF92FF920F931F93CF9357
:101EA000DF93CDB7DEB729013A019B01AC012419BC
:101EB00035094609570989899A89AB89BC89BC01CA
:101EC000CD016A197B098C099D090E941611A80190
:101ED000970124193509460957090E946811CA015A
:101EE000B9016A0D7B1D8C1D9D1DDF91CF911F9146
:101EF0000F91FF90EF90DF90CF90BF90AF907F90C9
:101F00006F905F904F90089508950E9447100E942F
:101F1000840F0E94AC00C2EADCE00E942C012097F2
:101F2000E1F30E94A20CF9CF1F920F920FB60F920D
:101F300011242F933F938F939F93AF93BF938091DF
:101F4000290390912A03A0912B03B0912C03309187
:101F5000280323E0230F2D3758F50196A11DB11D4D
:101F6000209328038093290390932A03A0932B03A3
:101F7000B0932C0380912D0390912E03A0912F03F9
:101F8000B09130030196A11DB11D80932D03909354
:101F90002E03A0932F03B0933003BF91AF919F9175
:101FA0008F913F912F910F900FBE0F901F9018951A
:101FB00026E8230F0296A11DB11DD2CF3FB7F8949A
:101FC00080912D0390912E03A0912F03B0913003A7
:101FD00026B5A89B05C02F3F19F00196A11DB11D84
:101FE0003FBFBA2FA92F982F8827BC01CD01620FC0
:101FF000711D811D911D42E0660F771F881F991F7B
:102000004A95D1F708958F929F92AF92BF92CF9247
:10201000DF92EF92FF926B017C010E94DE0F4B0179
:102020005C01C114D104E104F104E9F00E9415112E
:102030000E94DE0F681979098A099B09683E73407E
:102040008105910570F321E0C21AD108E108F10879
:1020500088EE880E83E0981EA11CB11CC114D10427
:10206000E104F10429F7FF90EF90DF90CF90BF904B
:10207000AF909F908F9008958230910538F0880F2F
:10208000991F880F991F05970197F1F70895789484
:1020900084B5826084BD84B5816084BD85B582606D
:1020A00085BD85B5816085BDEEE6F0E0808181600B
:1020B0008083E1E8F0E0108280818260808380810B
:1020C00081608083E0E8F0E0808181608083E1EBE3
:1020D000F0E0808184608083E0EBF0E080818160CB
:1020E0008083EAE7F0E08081846080838081826081
:1020F000808380818160808380818068808310926A
:10210000C1000895833081F028F4813099F0823045
:10211000A9F008958730A9F08830C9F08430B1F46F
:10212000809180008F7D03C0809180008F778093A5
:102130008000089584B58F7784BD089584B58F7D20
:10214000FBCF8091B0008F778093B000089580918D
:10215000B0008F7DF9CFCF93DF9390E0FC01E8577B
:10216000FF4F249184569F4FFC0184918823C9F02E
:1021700090E0880F991FFC01E654FF4FA591B491A0
:10218000FC01E055FF4FC591D49161110DC09FB77F
:10219000F8948C91209582238C938881282328831E
:1021A0009FBFDF91CF910895623051F49FB7F894AB
:1021B0003C91822F809583238C93E8812E2BEFCF47
:1021C0008FB7F894EC912E2B2C938FBFEACF1F93EF
:1021D000CF93DF93282F30E0F901EC58FF4F849123
:1021E000F901E857FF4FD491F901E456FF4FC4912C
:1021F000CC23A9F0162F81110E948210EC2FF0E061
:10220000EE0FFF1FE055FF4FA591B4918FB7F894E3
:10221000EC91111108C0D095DE23DC938FBFDF91C4
:10222000CF911F910895DE2BF8CF0895DB018F9396
:102230009F930E948711BF91AF91A29F800D911D26
:10224000A39F900DB29F900D11240895991B79E0E2
:1022500004C0991F961708F0961B881F7A95C9F736
:102260008095089597FB072E16F4009407D077FD0C
:1022700009D00E94921107FC05D03EF490958195FB
:102280009F4F0895709561957F4F0895A1E21A2E92
:10229000AA1BBB1BFD010DC0AA1FBB1FEE1FFF1F0A
:1022A000A217B307E407F50720F0A21BB30BE40B5A
:1022B000F50B661F771F881F991F1A9469F76095A1
:1022C0007095809590959B01AC01BD01CF0108955B
:1022D000052E97FB1EF400940E947F1157FD07D036
:1022E0000E94461107FC03D04EF40C947F115095C8
:1022F0004095309521953F4F4F4F5F4F08959095F2
:102300008095709561957F4F8F4F9F4F08950E94E4
:10231000AC11A59F900DB49F900DA49F800D911DB1
:1023200011240895AA1BBB1B51E107C0AA1FBB1FA4
:10233000A617B70710F0A61BB70B881F991F5A9551
:10234000A9F780959095BC01CD010895EE0FFF1F70
:102350000590F491E02D0994A29FB001B39FC001B4
:10236000A39F700D811D1124911DB29F700D811DC1
:102370001124911D0895FB01DC0102C001900D9212
:0C23800041505040D8F70895F894FFCF6A
:10238C00436F6E74726F6C6C65723A00583A200031
:10239C00593A20005A3A2000526F636B65743A0028
:1023AC000A0A003030303031000000000057078638
:1023BC0007F4062007F706FE06110700000000F2DE
:1023CC000C300E930CD20C650C7F0C710C0D0A00AA
:00000001FF
