:100000000C9461000C9489000C9489000C94890074
:100010000C9489000C9489000C9489000C9489003C
:100020000C9489000C9489000C9489000C9489002C
:100030000C9489000C9489000C9489000C9489001C
:100040000C942A090C9489000C9489000C94890062
:100050000C9489000C9489000C9489000C948900FC
:100060000C94FA070C9489000001020304050000B7
:100070000008000201000003040700000000000067
:100080000000010204081020408001020408102032
:1000900001020408102004040404040404040202FD
:1000A0000202020203030303030300000000250011
:1000B00028002B0000000000240027002A00DF0099
:1000C000EB0611241FBECFEFD8E0DEBFCDBF11E09D
:1000D000A0E0B1E0E0EDF5E102C005900D92A8319D
:1000E000B107D9F722E0A8E1B1E001C01D92A33227
:1000F000B207E1F710E0C1E6D0E004C02197FE01AD
:100100000E94E00ACF35D107C9F70E941B090C9461
:10011000E60A0C940000DC01ED91FC910190F08165
:10012000E02D099486E591E00E94550668E670E0AE
:1001300086E591E00E9471066BE670E086E591E04D
:100140000E948B0070E060E086E591E00E948B00E9
:1001500061E086E591E00E94730685E090E090936F
:100160002301809322019093250180932401109212
:1001700021011092200110921F0110921E01109275
:100180001B0110921A0110921D0110921C01109275
:1001900019011092180182E391E00E944D0560E080
:1001A00071E082E391E00E94300441E060E082E38C
:1001B00091E00E94730482E391E00C949B030F93FF
:1001C0001F9300E816E928E930E049E050E068E0D4
:1001D00070E082E391E00E9427031F910F91089540
:1001E0000F931F93CF93DF9300D000D000D0CDB7F3
:1001F000DEB768E670E086E591E00E9471066BE389
:1002000070E086E591E00E948B0060E086E591E079
:100210000E94730621E030E046E050E068E670E0BE
:1002200086E591E00E94E90686E591E00E94A0053E
:10023000182F86E591E00E94A00520E0822B912BEB
:10024000909331018093300186E591E00E94A005F2
:10025000182F86E591E00E94A00520E0822B912BCB
:1002600090932F0180932E0186E591E00E94A005D6
:10027000182F86E591E00E94A00520E0822B912BAB
:1002800090932D0180932C0168E670E086E591E063
:100290000E94710663E470E086E591E00E948B00A5
:1002A00060E086E591E00E94730621E030E046E0E0
:1002B00050E068E670E086E591E00E94E90686E598
:1002C00091E00E94A005182F86E591E00E94A0050C
:1002D00020E0822B912B90932B0180932A0186E5BD
:1002E00091E00E94A005182F86E591E00E94A005EC
:1002F00020E0822B912B909329018093280186E5A1
:1003000091E00E94A005182F86E591E00E94A005CB
:1003100020E0312F8901082B192B1093270100931E
:1003200026018091300190913101E8ECF0E0BF01AD
:100330000E94B80A9B012750310930933101209364
:10034000300180912E0190912F01BF010E94B80AC7
:100350006D5F7F4F70932F0160932E013A83298345
:100360007C836B83C801BF010E94B80A7E836D83C2
:1003700046E0BE016F5F7F4F82E391E00E942D0453
:1003800064E170E080E090E00E94A50926960FB637
:10039000F894DEBF0FBECDBFDF91CF911F910F91BB
:1003A00008958EBD00000DB407FEFDCF8EB50895F3
:1003B000CF93DF93EC018C810E94890A8B8D9C8DF9
:1003C000DF91CF910C94DE09FC012281338184817D
:1003D00095812817390719F0822F0C94890A0895FE
:1003E0000F931F93FC01068117812085318540E022
:1003F00052E16AE770E090E0041715072607370717
:1004000040F476956795579547959F5F9630A1F78D
:1004100097E0392F306A369590959170809153010D
:10042000882381F08FB7F89420915301213091F403
:100430002DB3209351014DB32091520120952423D7
:100440002DBB8FBF3CBD9DBD60E0CF011F910F91C3
:100450000C94D80180935101F5CF61E00E94D8013E
:1004600080915301882361F09FB7F8942091530144
:1004700080915101213019F48DBB9FBF08958FBF2A
:1004800008951F93CF93DF93EC01162F0E94F00184
:10049000812F80620E94D1018A87CE01DF91CF91A6
:1004A0001F910C942D021F93CF93DF93EC01162F15
:1004B0000E94F001812F0E94D1018A878FEF0E9454
:1004C000D101182FCE010E942D02812FDF91CF91F3
:1004D0001F910895DF92EF92FF920F931F93CF9396
:1004E000DF938C01C62FD42EE52EF22E0E94F00150
:1004F0008C2F80620E94D101F8018287CD2DDE2DE4
:10050000FA94FFEFFF1621F089910E94D101F8CFF4
:10051000C801DF91CF911F910F91FF90EF90DF9075
:100520000C942D020F931F93CF93DF93222331F06E
:10053000DF91CF911F910F910C944102042F162F40
:10054000EC010E94F001812F80620E94D1018A8714
:10055000802F0E94D101CE01DF91CF911F910F9189
:100560000C942D02CF92DF92EF92FF920F931F9384
:10057000CF93DF938C016B01F22EFC0184858111F6
:1005800017C0C385DC2F4C1708F4D42FCD1BC8012E
:100590000E94F0018F2D0E94D101F801828776011F
:1005A000D15070F0F70181917F010E94D101F8CF05
:1005B000C1E04111C0E0D42F413248F3D0E2E7CF8F
:1005C000C15020F080E00E94D101FACFC801DF9134
:1005D000CF911F910F91FF90EF90DF90CF900C94EF
:1005E0002D02CF93DF93EC0162EE0E9441028A85D7
:1005F000DF91CF910895CF93DF93EC0161EE0E94DC
:1006000041028A85DF91CF910895CF93DF93EC016A
:100610006FEF0E9441028A85DF91CF910895FC011E
:1006200085E591E091838083168686819781A085F8
:10063000B185893B9848A105B10540F480E896E969
:10064000A8E9B0E086839783A087B18708950F93C8
:100650001F93FC017383628355834483068317834E
:100660002087318780E2838781E0848785E0838BE0
:10067000158A85E090E0A0E0B0E0838F948FA58F8D
:10068000B68FCF011F910F910C940F03462F6D373A
:1006900008F04DE720E065E00C9492020F931F9361
:1006A000CF938C016623A1F0613208F060E2F8017B
:1006B0006387C1E120E0F80143856C2FC8010E94E7
:1006C0009202CF5FC731B1F7CF911F910F9108957B
:1006D00061E0EDCFFC0182819381019631F081E0F0
:1006E000248135812F3F3F4F09F480E008951F9307
:1006F000CF93DF93EC010E946A03182F8823B1F097
:100700008A819B812C813D818217930739F061E0BA
:100710000E944D0A61E08C810E944D0A60E0CE018A
:100720000E94E40161E0CE010E94D801812FDF9197
:10073000CF911F910895CF93DF93EC0160E00E9469
:10074000E4018F89988D0E94DE098D85882319F038
:10075000CE010E94FB024C894E7F4C8B20E060E072
:10076000CE010E94920262E0CE010E945302E8E6AE
:10077000F0E0E49141E050E001C0440FEA95EAF76F
:10078000482B20E062E0CE01DF91CF910C949202E1
:10079000FC01448941FD0AC04260448B20E060E0D6
:1007A0000E94920288E893E10C94DE0908950F9369
:1007B000CF93DF93EC0121110DC020EACE010E94FE
:1007C000B202002349F061E0CE01DF91CF910F9199
:1007D0000C94E40120EBF2CFDF91CF910F910895BB
:1007E000CF92DF92EF92FF920F93CF93DF93EC01C2
:1007F00001E00E94D7030E9474096B017C01CE01C5
:100800000E9405038073B1F40E9474096C197D097C
:100810008E099F09603671058105910580F381E09D
:100820008E8B80E0DF91CF910F91FF90EF90DF9062
:10083000CF90089560E0CE010E94E40120E040E7FF
:1008400067E0CE010E9492028A8584FF04C0CE0137
:100850000E94FB02E6CF81E0E5CF20E00C94F0039C
:100860000F931F93CF93DF93EC018B012B89AB0187
:100870006AE00E946A022B89A80160E1CE01DF9143
:10088000CF911F910F910C946A020F931F93CF93F6
:100890008C01CEEFC60F69F0C37020E04C2F63E0EF
:1008A0000E949202CE5FF801C38BCF911F910F91EE
:1008B000089520E040E063E00E94920282E0F801A7
:1008C000838BF3CFCF93DF93EC010E94F00180E59F
:1008D0000E94D1018A8783E70E94D101CE01DF9176
:1008E000CF910C942D020F931F93CF93DF938C0124
:1008F000D62FC42F66E00E945302887FD43060F068
:10090000CA5F4C2F482B20E066E0C801DF91CF91F1
:100910001F910F910C949202DD0FCD0FF2CFEF9249
:10092000FF920F931F93CF938C017B0166E00E948F
:100930005302C82FC77D82E0E816F104F1F4C062CB
:100940008BE990E0A0E0B0E0F801878B908FA18F59
:10095000B28F20E04C2F66E0C8010E94920266E050
:10096000C8010E94530291E08C1390E0892FCF912F
:100970001F910F91FF90EF90089585E590E0A0E022
:10098000B0E0EA94EF2801F7C86081E490E0A0E0CD
:10099000B0E0DACF603108F06FE020E1629FB00193
:1009A0001124403108F04FE0462B20E064E00C9425
:1009B00092021F93CF93DF93EC0165E070E080E03B
:1009C00090E00E94A5094FE065E0CE010E94CA04B4
:1009D00070E060E0CE010E948F046DE1CE010E94C4
:1009E0005302182FCE010E9462046DE1CE010E94D5
:1009F000530291E0181390E09D8B882359F018134F
:100A000003C0CE010E94620420E040E06DE1CE010F
:100A10000E9492021D8620E040E06CE1CE010E941F
:100A200092021C8620E04FE361E0CE010E94920218
:100A300020E043E062E0CE010E94920260E2CE013B
:100A40000E944E0365E0CE010E9445046CE4CE0195
:100A50000E94460320E040E767E0CE010E94920238
:100A6000CE010E94F102CE010E94FB0220E04CE088
:100A700060E0CE010E94920260E0CE010E9453022B
:100A80008C8BCE010E94C80381E09C899E3009F0C6
:100A900080E0DF91CF911F910895CF93DF93EC0118
:100AA0000E946005CE010E947703882329F0CE01C1
:100AB000DF91CF910C94D90480E0DF91CF9108951C
:100AC000CF93CFB7F89480915401811127C0E0EA09
:100AD000F0E08491ECE8F0E09491E82FF0E0EE0F84
:100AE000FF1FEC54FF4FA591B491EC91E92321F441
:100AF00061E08AE00E94890A61E08AE00E944D0A72
:100B00008CB580618CBD8CB580648CBD61E08DE05E
:100B10000E944D0A61E08BE00E944D0A80915401D1
:100B20008F5F80935401CFBFCF91089590E080E014
:100B3000089580918A0190918B01891B990B0895EA
:100B400090918B0180918A012FEF3FEF981748F425
:100B5000E92FF0E0E457FE4F208130E09F5F909353
:100B60008B01C9010895E0918B0180918A01E817FA
:100B700030F4F0E0E457FE4F808190E008958FEF6D
:100B80009FEF08950895CF93DF93EC01E091620108
:100B9000F09163013097F1F090918B0180918A017F
:100BA0009817C0F090E0292F30E02617370754F44B
:100BB000DE01A20FB31F4C9124573E4FD9014C9335
:100BC0009F5FF1CF10928B0160938A01CB01DF917F
:100BD000CF910994DF91CF910895E0916401F09154
:100BE0006501309729F0109268011092670109940D
:100BF0000895CF93DF931F92CDB7DEB7698320911D
:100C000066012223F9F020916701203258F021E09B
:100C100030E0FC013383228390E080E00F90DF918D
:100C2000CF91089580916801E82FF0E0E759FE4FD9
:100C3000998190838F5F809368018093670181E041
:100C400090E0ECCF61E0CE0101960E94B907F7CFAA
:100C5000CF92DF92EF92FF920F931F93CF93DF9388
:100C60007C01CB018A0120916601222389F0EB01EE
:100C70006B01C40ED51ECC15DD0569F06991D70155
:100C8000ED91FC910190F081E02DC7010995F3CF22
:100C9000642F0E94B907C801DF91CF911F910F9176
:100CA000FF90EF90DF90CF90089510928B011092FB
:100CB0008A0110926801109267010E94FC068DEE75
:100CC00095E00E94E50783EC95E00C94E00781E055
:100CD0008093660160938901109268011092670108
:100CE00008950C9467060F93062F21E04091670149
:100CF00069E671E0809189010E94620710926801A3
:100D000010926701109266010F9108954F925F92C1
:100D10006F927F92AF92BF92CF92EF92FF920F931A
:100D20001F93CF93DF935C01F62ED42F2801390156
:100D3000EE2019F10E946706CE2DC43008F0C3E002
:100D4000C150B8F028E0C29FC0011124A301920154
:100D500004C056954795379527958A95D2F7B901DE
:100D6000D501ED91FC910190F081E02DC50109952F
:100D7000E7CF60E0C5010E9473064D2FD13208F025
:100D800040E22C2D6CE871E08F2D0E941A07109222
:100D90008B0180938A01DF91CF911F910F91FF907A
:100DA000EF90CF90BF90AF907F906F905F904F90FB
:100DB0000895CF92EF920F931F93C22EE12C00E083
:100DC00010E098010E9486061F910F91EF90CF903E
:100DD00008950C94D906E6E5F1E01382128288EEBC
:100DE00093E0A0E0B0E084839583A683B7838AE094
:100DF00091E09183808308951092190281E080939D
:100E000017021092160261E082E10E94890A61E0F5
:100E100083E10E94890AE9EBF0E080818E7F808384
:100E200080818D7F808388E48093B80085E48093FF
:100E3000BC000895413208F043C09091190291110D
:100E4000FCCF91E090931902209317022FEF20938B
:100E5000AC011092F101240F2093F001909318023D
:100E600090911802880F892B8093180280911602A6
:100E7000813009F510921602809118028093BB0010
:100E80008091BC0083FDF8CF85EC8093BC008091FD
:100E900019028130E1F38091F101841710F440913F
:100EA000F101A2EFB1E0962FFB018E2F891B841771
:100EB00020F0842F089585EEE8CF8D918193F5CFB2
:100EC00040E0F7CF0F93413208F04BC090911902E8
:100ED0009111FCCF92E090931902009317029FEFBB
:100EE0009093AC011092F1014093F001362FA2EFE4
:100EF000B1E0FB019E2F931B941770F11092180222
:100F000090911802880F892B809318028091160205
:100F1000813029F510921602809118028093BB004F
:100F20008091BC0083FDF8CF85EC8093BC00222328
:100F300021F0809119028230D1F38091AC018F3F72
:100F400091F08091AC01803281F08091AC018033CE
:100F500071F084E00F91089591919D93CBCF85EE30
:100F6000E4CF81E0F7CF80E0F5CF82E0F3CF83E0FC
:100F7000F1CF2091CE01260F3327331F21323105C7
:100F8000ECF420911902FC0190E080E0243069F03B
:100F900082E00895A091CE012191AC0140535E4FB3
:100FA000A40FB52FB11D2C930196861798F380914D
:100FB000CE01680F6093CE0180E0089581E008952E
:100FC00090931302809312020895909315028093D8
:100FD0001402089585ED8093BC008091BC0084FDCF
:100FE000FCCF10921902089585EC8093BC001092FA
:100FF000190208951F920F920FB60F9211242F938A
:101000003F934F935F936F937F938F939F93AF9390
:10101000BF93EF93FF938091B900887F803609F4E6
:101020004CC008F03FC0883209F4A8C018F58031E0
:1010300009F49CC0B8F4882309F4F9C0883009F495
:1010400095C0FF91EF91BF91AF919F918F917F914B
:101050006F915F914F913F912F910F900FBE0F9025
:101060001F901895883109F489C0803251F7809318
:10107000AC0115C0803409F49EC048F48033B9F344
:101080008833F9F68093AC010E94F407DACF8035FB
:1010900009F485C0883509F496C0883491F60E9419
:1010A000EA07CFCF883909F48CC038F5883729F0A2
:1010B00050F4883611F0803721F683E080931902CE
:1010C0001092AD0157C0883809F47BC0803919F0FF
:1010D000803809F0B6CF8091AD01803208F071C040
:1010E000E091AD0181E08E0F8093AD018091BB0056
:1010F000F0E0E255FE4F80833DC0803B39F0E0F4E4
:10110000803A09F479C0883A09F09BCF84E0809353
:1011100019021092CF011092CE01E0911402F091C9
:10112000150209958091CE0181110FC081E0809355
:10113000CE011092D00109C0803C09F476C0883CF1
:1011400009F473C0883B09F07CCFE091CF0181E0C6
:101150008E0F8093CF01F0E0E053FE4F80818093AB
:10116000BB009091CF018091CE0129C080911802DF
:101170008093BB0085EC8093BC0063CF9091F1011C
:101180008091F001981758F5E091F10181E08E0F00
:101190008093F101F0E0EE50FE4F8081E9CFE091C5
:1011A000F10181E08E0F8093F1018091BB00F0E0AE
:1011B000EE50FE4F80839091F1018091F0019817DD
:1011C000C8F285E8D8CFE091F10181E08E0F8093DD
:1011D000F1018091BB00F0E0EE50FE4F80838091E2
:1011E000170281115CCF81E08093160284EA80931C
:1011F000BC001092190225CF0E94F4078091AD0126
:10120000803230F4E091AD01F0E0E255FE4F108203
:101210006091AD0170E0E0911202F09113028EEA4C
:1012200091E009951092AD010CCF85ECE0CF1092C2
:10123000AC0135CF08950E94E9090E941A090E9465
:101240009200C0E0D0E00E94F0002097E1F30E94FD
:101250000000F9CF1F920F920FB60F9211242F9317
:101260003F938F939F93AF93BF9380911B02909175
:101270001C02A0911D02B0911E0230911A0223E0BF
:10128000230F2D3758F50196A11DB11D20931A0289
:1012900080931B0290931C02A0931D02B0931E0228
:1012A00080911F0290912002A0912102B091220210
:1012B0000196A11DB11D80931F0290932002A0935F
:1012C0002102B0932202BF91AF919F918F913F91E4
:1012D0002F910F900FBE0F901F90189526E8230FA7
:1012E0000296A11DB11DD2CF2FB7F89460911B02B9
:1012F00070911C0280911D0290911E022FBF0895D3
:101300003FB7F89480911F0290912002A091210292
:10131000B091220226B5A89B05C02F3F19F0019677
:10132000A11DB11D3FBFBA2FA92F982F8827BC013F
:10133000CD01620F711D811D911D42E0660F771F67
:10134000881F991F4A95D1F708958F929F92AF9267
:10135000BF92CF92DF92EF92FF926B017C010E94CD
:1013600080094B015C01C114D104E104F104E9F0EE
:101370000E94B70A0E948009681979098A099B09A5
:10138000683E73408105910570F321E0C21AD108CF
:10139000E108F10888EE880E83E0981EA11CB11CBC
:1013A000C114D104E104F10429F7FF90EF90DF901C
:1013B000CF90BF90AF909F908F900895823091050D
:1013C00038F0880F991F880F991F05970197F1F73B
:1013D0000895789484B5826084BD84B5816084BDAD
:1013E00085B5826085BD85B5816085BDEEE6F0E09E
:1013F000808181608083E1E8F0E0108280818260FA
:101400008083808181608083E0E8F0E0808181607A
:101410008083E1EBF0E0808184608083E0EBF0E0AA
:10142000808181608083EAE7F0E08081846080834E
:1014300080818260808380818160808380818068F8
:1014400080831092C1000895833081F028F48130A8
:1014500099F08230A9F008958730A9F08830C9F05A
:101460008430B1F4809180008F7D03C08091800032
:101470008F7780938000089584B58F7784BD089519
:1014800084B58F7DFBCF8091B0008F778093B000C3
:1014900008958091B0008F7DF9CFCF93DF9390E0D6
:1014A000FC01EE57FF4F24918A569F4FFC01849117
:1014B0008823C9F090E0880F991FFC01EC54FF4F7E
:1014C000A591B491FC01E655FF4FC591D4916111EE
:1014D0000DC09FB7F8948C91209582238C938881BE
:1014E000282328839FBFDF91CF910895623051F464
:1014F0009FB7F8943C91822F809583238C93E88149
:101500002E2BEFCF8FB7F894EC912E2B2C938FBF0F
:10151000EACF1F93CF93DF93282F30E0F901E259F0
:10152000FF4F8491F901EE57FF4FD491F901EA562C
:10153000FF4FC491CC23A9F0162F81110E94240AD9
:10154000EC2FF0E0EE0FFF1FE655FF4FA591B49191
:101550008FB7F894EC91111108C0D095DE23DC937D
:101560008FBFDF91CF911F910895DE2BF8CF0895A3
:1015700097FB072E16F4009407D077FD09D00E9440
:10158000CC0A07FC05D03EF4909581959F4F0895B5
:10159000709561957F4F0895AA1BBB1B51E107C051
:1015A000AA1FBB1FA617B70710F0A61BB70B881FF3
:1015B000991F5A95A9F780959095BC01CD01089582
:1015C000EE0FFF1F0590F491E02D0994F894FFCFE2
:1015D00030303030310000000000F9052806960553
:0815E000C2059905A005B30541
:00000001FF
